:100000000C942A000C943F000C943F000C943F0089
:100010000C943F000C943F000C943F000C943F0064
:100020000C943F000C943F000C943F000C943F0054
:100030000C943F000C943F000C943F000C943F0044
:100040000C943F000C943F000C943F000C943F0034
:100050000C943F0011241FBECFE5D4E0DEBFCDBF1E
:1000600010E0A0E6B0E0EEE1F8E002C005900D92ED
:10007000A438B107D9F70E949A030C940D040C948C
:100080000000813049F0813028F0823039F083302F
:1000900041F406C06ABB089567BB089564BB089528
:1000A00061BB0895813049F0813028F0823039F009
:1000B000833041F406C06BBB089568BB089565BBEF
:1000C000089562BB0895683008F072C04130B1F500
:1000D000813099F0813030F08230D1F0833009F0F6
:1000E00067C021C02AB381E090E002C0880F991F49
:1000F0006A95E2F7282B2ABB089527B381E090E0A8
:1001000002C0880F991F6A95E2F7282B27BB089534
:1001100024B381E090E002C0880F991F6A95E2F74E
:10012000282B24BB089521B381E090E002C0880F02
:10013000991F6A95E2F7282B21BB08954423C1F546
:10014000813099F0813028F08230D9F0833081F508
:1001500024C02AB381E090E002C0880F991F6A95FD
:10016000E2F7809582238ABB089527B381E090E06F
:1001700002C0880F991F6A95E2F78095822387BB9A
:10018000089524B381E090E002C0880F991F6A951A
:10019000E2F78095822384BB089521B381E090E04B
:1001A00002C0880F991F6A95E2F78095822381BB70
:1001B0000895683008F072C04130B1F5813099F08F
:1001C000813030F08230D1F0833009F067C021C037
:1001D0002BB381E090E002C0880F991F6A95E2F787
:1001E000282B2BBB089528B381E090E002C0880F34
:1001F000991F6A95E2F7282B28BB089525B381E063
:1002000090E002C0880F991F6A95E2F7282B25BB62
:10021000089522B381E090E002C0880F991F6A958B
:10022000E2F7282B22BB08954423C1F5813099F0D1
:10023000813028F08230D9F0833081F524C02BB38F
:1002400081E090E002C0880F991F6A95E2F78095DF
:1002500082238BBB089528B381E090E002C0880F11
:10026000991F6A95E2F78095822388BB089525B38C
:1002700081E090E002C0880F991F6A95E2F78095AF
:10028000822385BB089522B381E090E002C0880FED
:10029000991F6A95E2F78095822382BB08956830A2
:1002A000F0F4813049F0813028F0823039F0833029
:1002B000B1F40DC089B303C086B301C083B390E02D
:1002C00002C0959587956A95E2F78170089580B38D
:1002D00090E002C0959587956A95E2F78170089540
:1002E000813051F0813030F0823041F0833079F04C
:1002F00080E0089589B303C086B301C083B390E062
:1003000002C0959587956A95E2F78170089580B34C
:1003100090E002C0959587956A95E2F781700895FF
:100320006830A0F5813091F0813028F08230C9F03A
:10033000833061F521C02BB381E090E002C0880FCB
:10034000991F6A95E2F728272BBB089528B381E00F
:1003500090E002C0880F991F6A95E2F7282728BB12
:10036000089525B381E090E002C0880F991F6A9537
:10037000E2F7282725BB089522B381E090E002C070
:10038000880F991F6A95E2F7282722BB0895EF92FC
:10039000FF921F93182F482F441F4427441F83E0C8
:1003A00065E00E94D900412F4295469546954170DF
:1003B00083E064E00E94D900412F42954695417048
:1003C00083E063E00E94D900412F4295417083E0B1
:1003D00062E00E94D90082E067E041E00E94D9001B
:1003E00084EFE82E81E0F82EC7010197F1F782E053
:1003F00067E040E00E94D900412F4695469546951A
:10040000417083E065E00E94D900412F46954695F2
:10041000417083E064E00E94D900412F469541700D
:1004200083E063E00E94D900117083E062E0412F15
:100430000E94D90082E067E041E00E94D900C70134
:100440000197F1F782E067E040E00E94D9001F9138
:10045000FF90EF9008951F93182F82E066E040E030
:100460000E94D900812F0E94C7011F91089581E049
:100470000E942B020895DF93CF9300D000D0CDB718
:10048000DEB7198290E49A8394E19B8394E59C8380
:100490006058FE01E80FF11D8181860F0E942B023A
:1004A0000F900F900F900F90CF91DF9108951F93B1
:1004B000182F82E066E041E00E94D900812F0E945F
:1004C000C7011F9108950E94570208950F931F932B
:1004D000CF93DF938C01862F880F880F880F805C65
:1004E0000E942B02C0E0D0E0F801EC0FFD1F8081DC
:1004F0000E9457022196C830D105B1F7DF91CF9104
:100500001F910F9108958F929F92AF92BF92CF92B9
:10051000DF92EF92FF920F93DF93CF93CDB7DEB7C9
:100520002A970FB6F894DEBF0FBECDBFAC01CB014A
:10053000DA016C017D0100E04E010894811C911CE0
:100540005401A00EB11CC701B6012AE030E040E022
:1005500050E00E94EB03605DF5016083C701B601C6
:100560002AE030E040E050E00E94EB03C901DA01EC
:100570006C017D010F5FC114D104E104F10401F7A6
:1005800007C0FE01E00FF11D80810E94570201505B
:100590000023B9F72A960FB6F894DEBF0FBECDBF81
:1005A000CF91DF910F91FF90EF90DF90CF90BF90B0
:1005B000AF909F908F900895CF93DF93EC0102C08E
:1005C0000E94570289918823D9F7DF91CF9108952E
:1005D0008CE49DE10197F1F782E066E041E00E9442
:1005E000630082E067E041E00E94630083E062E034
:1005F00041E00E94630083E063E041E00E94630009
:1006000083E064E041E00E94630083E065E041E054
:100610000E94630082E00E942B0288E20E942B026B
:100620008CE00E942B0281E00E942B0286E00E9457
:100630002B02089583E082B986B7806486BF86B7AF
:10064000846086BF089586B7806286BF86B780685B
:1006500086BF06B607FEFDCF81B1887F883011F0D6
:1006600082E0089581E0089586B7806186BF86B7ED
:10067000806886BF089586B7806286BF86B7806827
:1006800086BF06B607FEFDCF81B1887F803111F0AD
:1006900083E0089581E00895880F83B9189886B79C
:1006A0008F7D86BF86B7806886BF06B607FEFDCF02
:1006B00081B1887F883111F084E0089581E0089548
:1006C000880F816083B986B78F7D86BF86B78068C3
:1006D00086BF06B607FEFDCF81B1887F803411F05A
:1006E00085E0089581E0089583B986B7806886BF64
:1006F00006B607FEFDCF81B1887F883211F086E013
:10070000089581E00895FC0186B7806486BF86B7AE
:10071000806886BF06B607FEFDCF81B1887F803531
:1007200011F097E003C083B1808391E083B18083AF
:10073000892F0895EF92FF920F931F93DF93CF932A
:100740000F92CDB7DEB70E941A0380E060E041E06F
:100750000E9463000E94E80280E690E00E94DC02B2
:1007600080E29EE429E130E0F9013197F1F7019749
:10077000D9F70E9437027E010894E11CF11C09E1BF
:1007800010E0C7010E9483038981823389F480E0ED
:1007900060E041E00E94D9008DE690E00E94DC021A
:1007A00088E893E1F8013197F1F70197D9F7E9CF9C
:1007B000813339F780E060E040E00E94D90088E7AB
:1007C00090E00E94DC0288E893E1F8013197F1F7AC
:1007D0000197D9F7D6CFA1E21A2EAA1BBB1BFD01A8
:1007E0000DC0AA1FBB1FEE1FFF1FA217B307E40710
:1007F000F50720F0A21BB30BE40BF50B661F771F68
:10080000881F991F1A9469F7609570958095909547
:0E0810009B01AC01BD01CF010895F894FFCF0C
:10081E00202057656C636F6D652E2E2E00204C4583
:10082E0044204953204F4E00204C4544204953202C
:04083E004F464600DB
:00000001FF
